S00C0000746573742E7372656358
S11300000C9434000C9449000C9449000C9449005D
S11300100C9449000C9449000C9449000C94490038
S11300200C9449000C9449000C9449000C94490028
S11300300C9449000C9449000C9449000C94490018
S11300400C9449000C9449000C9449000C94490008
S11300500C9449000C9449000C9449000C944900F8
S11300600C9449000C94490011241FBECFEFD8E032
S1130070DEBFCDBF11E0A0E0B1E0ECE2F1E002C0F0
S113008005900D92AE30B107D9F70E9478000C9418
S113009094000C9400001092C50083E38093C40084
S11300A088E08093C10086E08093C2000895982F71
S11300B08091C00085FFFCCF9093C6000895FC0199
S11300C040E951E09081992391F08091C00085FF2F
S11300D0FCCF9093C60024EF31E0CA010197F1F7F9
S11300E021503040D1F731969081992371F70895CA
S11300F0CF93DF931092C50083E38093C40088E01C
S11301008093C10086E08093C200C0E9D1E080E022
S113011091E00E945F0024EF31E0CE010197F1F7F6
S10F012021503040D1F7F3CFF894FFCF0A
S111012C48656C6C6F20576F726C640D0A008E
S9030000FC
