S00F00006E756D626572732E7372656319
S11300000C9434000C9449000C9449000C9449005D
S11300100C9449000C9449000C9449000C94490038
S11300200C9449000C9449000C9449000C94490028
S11300300C9449000C9449000C9449000C94490018
S11300400C9449000C9449000C9449000C94490008
S11300500C9449000C9449000C9449000C944900F8
S11300600C9449000C94490011241FBECFEFD8E032
S1130070DEBFCDBF11E0A0E0B1E0E6E7F2E002C0F0
S113008005900D92AA30B107D9F70E9410010C9483
S113009039010C940000482F50E027E030E065E37C
S11300A00CC0299A289A862F8A95F1F7289821500E
S11300B030408FEF2F3F380759F0CA01022E02C09B
S11300C0959587950A94E2F780FDEBCF2998EACFBE
S11300D02A9A85E38A95F1F72A98089584B188616C
S11300E084B92B9A2C98089587B18C6387B90895A5
S11300F0982F88B1837C88B9923069F0933028F0C6
S1130100933059F0943029F008959130E9F7459AE5
S11301100895429A0895449A0895439A0895CF926F
S1130120DF92EF92FF920F931F93DF93CF93CDB79C
S1130130DEB72A970FB6F894DEBF0FBECDBF6C01B1
S11301407E010894E11CF11CD701E0E0F1E08AE0B3
S113015001900D928150E1F781E00E947800C60180
S11301606AE070E00E942501F701E80FF91F808121
S11301700E944B0000E21EE4C8010197F1F782E0FF
S11301800E947800C6016AE070E00E942501CB015C
S11301906AE070E00E942501F701E80FF91F8081F1
S11301A00E944B00C8010197F1F783E00E94780098
S11301B0C60164E670E00E942501CB016AE070E0AC
S11301C00E942501F701E80FF91F80810E944B006E
S11301D0C8010197F1F784E00E947800C60168EE37
S11301E073E00E942501CB016AE070E00E942501C2
S11301F0E80EF91EF70180810E944B00C8010197A7
S1130200F1F72A960FB6F894DEBF0FBECDBFCF919B
S1130210DF911F910F91FF90EF90DF90CF900895A1
S1130220CF93DF9384B1876084B90E946E0087B155
S11302308C6387B9C1E0D0E0CE010E948F00219683
S113024083E0C93ED807C1F7FFCFAA1BBB1B51E10E
S113025007C0AA1FBB1FA617B70710F0A61BB70B32
S1130260881F991F5A95A9F780959095BC01CD01D7
S10902700895F894FFCF8D
S10D0276C0F9A4B0999282F88090B8
S9030000FC
