:100000000C94B1000C943C020C94CE000C94CE00E5
:100010000C94CE000C94CE000C94CE000C94CE0028
:100020000C94CE000C94CE000C94CE000C94C8011D
:100030000C94CE000C94CE000C94CE000C94CE0008
:100040000C94CE000C94CE000C94CE000C94CE00F8
:100050000C94CE000C9440010C94CE000C94CE0075
:100060000C94CE000C94CE0000407A10F35A00A0FD
:10007000724E18090010A5D4E80000E87648170071
:1000800000E40B54020000CA9A3B000000E1F505B1
:10009000000080969800000040420F000000A086FB
:1000A00001000000102700000000E803000000002D
:1000B0006400000000000A000000000001000000D1
:1000C00000002C76D888DC674F0823DFC1DFAE59EB
:1000D000E1B1B796E5E3E453C63AE651997696E87E
:1000E000E6C28426EB898C9B62ED407C6FFCEFBC02
:1000F0009C9F40F2BAA56FA5F490055A2AF75C932D
:100100006B6CF9676DC11BFCE0E40D47FEF520E662
:10011000B500D0ED902E0300943577050080841E45
:10012000080000204E0A000000C80C333333330FA0
:10013000986E12831141EF8D2114893BE65516CF3D
:10014000FEE6DB18D1844B381BF77C1D901DA4BB49
:10015000E424203284725E228100C9F124ECA1E5FE
:100160003D2711241FBECFEFD8E0DEBFCDBF12E088
:10017000A0E0B1E0E6ECF9E102C005900D92A235F5
:10018000B107D9F712E0A2E5B2E001C01D92A13695
:10019000B107E1F70E9471030C94E10C0C9400008C
:1001A0001092C50083E38093C40088E08093C1006F
:1001B00086E08093C2000895982F8091C00085FF4B
:1001C000FCCF9093C6000895FC019081992351F0D3
:1001D00031968091C00085FFFCCF9093C60090813E
:1001E0009923B1F7089584B1886184B92B9A2C982A
:1001F0000895482F50E027E030E06AE10CC0299ACA
:10020000289A862F8A95F1F72898215030408FEF51
:100210002F3F380759F0CA01022E02C095958795E5
:100220000A94E2F780FDEBCF2998EACF2A9A8AE177
:100230008A95F1F72A980895982F88B1837C88B918
:10024000923069F0933028F0933059F0943029F0CF
:1002500008959130E9F7459A0895429A0895449A8D
:100260000895439A089580E480937C008EE88093FB
:100270007A000895EAE7F0E0808180648083089541
:100280001F920F920FB60F9211242F933F938F93CB
:100290009F93809178009091790090935902809378
:1002A0005802209158023091590280915A0290913F
:1002B0005B028217930740F4809158029091590293
:1002C00090935B0280935A02209158023091590218
:1002D00080913C0190913D012817390740F48091AD
:1002E00058029091590290933D0180933C01809176
:1002F0005802909159028050924080F080915F02A4
:10030000909160028050924048F480915C029091FC
:100310005D02019690935D0280935C028091580289
:10032000909159029093600280935F0280917A00CD
:10033000806480937A009F918F913F912F910F90CD
:100340000FBE0F901F901895609156027091570242
:1003500080E090E00E94E1072AE038E240EA5BE3B7
:100360000E94030620E030E040E05FE30E940306C5
:100370000895609158027091590280E090E00E94C7
:10038000E1072AE038E240EA5BE30E9403060895B1
:100390001F920F920FB60F9211242F933F934F93FA
:1003A0005F936F937F938F939F93AF93BF93EF93DD
:1003B000FF9360915C0270915D0280E090E00E948A
:1003C000E10720E030E040E05FE30E940306609335
:1003D000520270935302809354029093550280917D
:1003E0005A0290915B0220913C0130913D01821BA9
:1003F000930B909357028093560210925D021092D5
:100400005C0210925B0210925A028FEF93E090937D
:100410003D0180933C0181E080935E02FF91EF916A
:10042000BF91AF919F918F917F916F915F914F910C
:100430003F912F910F900FBE0F901F901895E1E8FC
:10044000F0E080818860808388E09DE3909389005C
:1004500080938800808185608083EFE6F0E0808172
:1004600082608083089552985A9AE9E6F0E080818C
:1004700082608083E89A08951F920F920FB60F92C0
:1004800011248F939F9380913F0190E0882309F47A
:1004900091E090933F0180913F01882349F42F9A86
:1004A0002E989F918F910F900FBE0F901F901895CF
:1004B0002E9A2F989F918F910F900FBE0F901F90A3
:1004C000189584B1806C84B92E9A2F9808954F9214
:1004D0005F926F927F928F929F92AF92BF92CF92D4
:1004E000DF92EF92FF920F931F93DF93CF93CDB7DD
:1004F000DEB728970FB6F894DEBF0FBECDBF44E03D
:1005000023E02E010894411C511C82010E94860A9E
:1005100024E0922E882498EC692E712C082D10E08E
:100520007201E00EF11EF7019081992309F48FC04A
:10053000992009F475C0892F80538A3008F443C08C
:100540009E3209F452C0839460913E0170E080E0D5
:1005500090E00E94E1075B016C0120E030E04AEF8F
:1005600054E40E9403067B018C0120E030E040E867
:100570005FE30E945D078823ACF1C801B70120E06A
:100580003FEF4FE757E40E94FD061816A4F4C6019A
:10059000B50120E030E040E251E40E9403060E94F1
:1005A0002D04CB01672B09F4B9CFF3013197F1F793
:1005B0000197D9F7B3CFC801B7010E942D04CB0131
:1005C0000197F1F7ABCF892D0E941C01D701EC9167
:1005D000FF27E7FDF095E05FFE4F80810E94F90064
:1005E0009A94B1CF61E070E0EACF892D8F5F0E94CD
:1005F0001C010C0F1D1FD801EC91FF27E7FDF095A2
:10060000E05FFE4F80818F770E94F9009CCFC80188
:10061000B7010E942D04CB010197F1F79920E1F475
:1006200028960FB6F894DEBF0FBECDBFCF91DF91F5
:100630001F910F91FF90EF90DF90CF90BF90AF9000
:100640009F908F907F906F905F904F90089599202A
:1006500039F388EC682E712C892D0E941C018FEFD4
:100660000E94F9009A9460913E0170E080E090E071
:100670000E94E1075B016C0120E030E04AEF54E4A6
:100680000E9403067B018C0120E030E040E85FE33C
:100690000E945D07882314F1C801B70120E03FEFF5
:1006A0004FE757E40E94FD0618160CF0B0CFC601C4
:1006B000B50120E030E040E251E40E9403060E94D0
:1006C0002D04CB01672B09F4A9CFF3013197F1F782
:1006D0000197D9F7992009F0BFCFA2CF61E070E070
:1006E0009ACF2F923F924F925F926F927F928F920A
:1006F0009F92AF92BF92CF92DF92EF92FF920F93B1
:100700001F93DF93CF93CDB7DEB7A0970FB6F894C2
:10071000DEBF0FBECDBF84B1876084B90E94F300F5
:100720001092C50083E38093C40088E08093C100E9
:1007300086E08093C20080E480937C008EE8809302
:100740007A000E941F020E9433020E946102789484
:1007500080917A00806480937A001E010894211CA5
:10076000311C80915E028823E1F340905202509048
:10077000530260905402709055026091560270913D
:10078000570280E090E00E94E1072AE038E240EA68
:100790005BE30E94030620E030E040E05FE30E945C
:1007A00003064B015C01C0905802D090590280E0D2
:1007B00091E00E94E400C301B20146E022E0810121
:1007C0000E94860AC1010E94E4008CE091E00E9430
:1007D000E40082E191E00E94E400B401C50144E03C
:1007E00022E00E94860AC1010E94E4008EE191E0AD
:1007F0000E94E40083E291E00E94E400EE24FF24E2
:10080000C701B6010E94E1072AE038E240EA5BE353
:100810000E94030644E022E00E94860AC1010E9471
:10082000E40085E391E00E94E40010925E02809172
:100830003F01882369F4782D992D8A2D6B2D272F60
:10084000392F482F562FB901CA010E94670289CF5C
:10085000742D952D862D672DF2CFEF92FF920F9379
:100860001F937B018C0120E030E040E05FE40E94B8
:100870002D0788238CF0C801B70120E030E040E06C
:100880005FE40E94A5050E948D079B01AC012050EA
:1008900030404040504806C0C801B7010E948D0753
:1008A0009B01AC01B901CA011F910F91FF90EF901C
:1008B0000895A0E0B0E0EFE5F4E00C944F0ADC010D
:1008C0002B01FA019C91923008F439C1EB01888127
:1008D000823008F433C1943069F4843009F02FC1B8
:1008E00011969C9111978981981709F428C1AAE45F
:1008F000B1E025C1843009F421C18230A9F49230DD
:1009000009F01DC19A01AD0188E0EA010990AE012C
:10091000E90109929E018150C1F7E2018981119696
:100920009C918923818308C1923009F407C11296F2
:100930002D903C901397EB018A819B811496AD908A
:10094000BD90CD90DC901797EC80FD800E811F81CB
:100950009101281B390BB90137FF04C0662777279F
:10096000621B730B603271050CF061C01216130626
:100970006CF537014801062E04C09694879477944D
:1009800067940A94D2F721E030E040E050E004C0E0
:10099000220F331F441F551F6A95D2F72150304054
:1009A000404050402E213F21402351232115310545
:1009B0004105510521F021E030E040E050E07901AF
:1009C0008A01E628F728082919293CC0232BD1F1F0
:1009D000260E371E35014601062E04C096948794D4
:1009E000779467940A94D2F721E030E040E050E039
:1009F00004C0220F331F441F551F6A95D2F72150A0
:100A00003040404050402A213B214C215D2121159E
:100A100031054105510521F021E030E040E050E092
:100A200059016A01A628B728C828D9280BC0821501
:100A300093052CF01C01AA24BB24650103C0EE24FD
:100A4000FF24870111969C91D20111968C919817E1
:100A500009F445C0992339F0A80197012A193B09E7
:100A60004C095D0906C0A60195012E193F09400BEE
:100A7000510B57FD08C011823382228224833583B3
:100A8000468357831DC081E0818333822282882779
:100A90009927DC01821B930BA40BB50B84839583F0
:100AA000A683B7830DC0220F331F441F551F248315
:100AB0003583468357838281938101979383828311
:100AC0002481358146815781DA01C9010197A10945
:100AD000B1098F5F9F4FAF4FBF4328F30BC0918386
:100AE00033822282EA0CFB1C0C1D1D1DE482F58260
:100AF0000683178383E08083248135814681578173
:100B000057FF1AC0C901AA2797FDA095BA2F817077
:100B10009070A070B0705695479537952795822BA9
:100B2000932BA42BB52B84839583A683B7838281D3
:100B30009381019693838283DF0101C0D201CD01AD
:100B4000CDB7DEB7E2E10C946B0AA0E2B0E0EBEACD
:100B5000F5E00C945B0A69837A838B839C832D83F5
:100B60003E834F835887E9E0EE2EF12CEC0EFD1EFC
:100B7000CE010196B7010E947E098E010F5E1F4FC4
:100B8000CE010596B8010E947E098A8991E08927E5
:100B90008A8BC701B801AE01475E5F4F0E945904BE
:100BA0000E94A908A096E6E00C94770AA0E2B0E0C3
:100BB000ECEDF5E00C945B0A69837A838B839C836C
:100BC0002D833E834F835887F9E0EF2EF12CEC0EF6
:100BD000FD1ECE010196B7010E947E098E010F5EB7
:100BE0001F4FCE010596B8010E947E09C701B801CA
:100BF000AE01475E5F4F0E9459040E94A908A0966B
:100C0000E6E00C94770AA0E2B0E0E9E0F6E00C94AC
:100C10004F0A69837A838B839C832D833E834F8322
:100C20005887CE010196BE01675F7F4F0E947E0903
:100C3000CE010596BE016F5E7F4F0E947E099985A9
:100C4000923088F089898230C8F0943019F482306B
:100C500051F404C0843029F4923081F48AE491E0A4
:100C6000C6C0923049F420E09A858A89981321E021
:100C70002A87CE010996BBC0823049F420E09A85CC
:100C80008A89981321E02A8BCE014196B0C02D8429
:100C90003E844F8458886D887E888F88988CEE2497
:100CA000FF248701AA24BB24650140E050E060E0F6
:100CB00070E0E0E0F0E0C10181709070892BE9F014
:100CC000E60CF71C081D191D9A01AB012A0D3B1DEE
:100CD0004C1D5D1D80E090E0A0E0B0E0E614F7045C
:100CE0000805190520F481E090E0A0E0B0E0BA0129
:100CF000A901480F591F6A1F7B1FAA0CBB1CCC1CE3
:100D0000DD1C97FE08C081E090E0A0E0B0E0A82ADA
:100D1000B92ACA2ADB2A3196E032F10549F0660C7D
:100D2000771C881C991C5694479437942794C3CFFA
:100D3000FA85EA892B893C898B859C85280F391F88
:100D40002E5F3F4F17C0CA0181709070892B61F0F0
:100D500016950795F794E79480E090E0A0E0B0E85E
:100D6000E82AF92A0A2B1B2B769567955795479504
:100D70002F5F3F4F77FDE7CF0CC0440F551F661F15
:100D8000771F17FD4160EE0CFF1C001F111F215043
:100D90003040403090E0590790E0690790E47907CF
:100DA00060F32B8F3C8FDB01CA018F779070A070AE
:100DB000B07080349105A105B10561F447FD0AC00A
:100DC000E114F1040105110529F0405C5F4F6F4FFC
:100DD0007F4F40781A8EFE1711F081E08A8F4D8F79
:100DE0005E8F6F8F78A383E0898FCE0149960E9432
:100DF000A908A096E2E10C946B0AA8E1B0E0E3E058
:100E0000F7E00C945B0A69837A838B839C832D8340
:100E10003E834F83588789E0E82EF12CEC0EFD1EAF
:100E2000CE010196B7010E947E098E010F5E1F4F11
:100E3000CE010596B8010E947E098985823040F076
:100E40008989823028F0C701B8010E94F60901C0E3
:100E50008FEF6896E6E00C94770AA8E1B0E0E3E350
:100E6000F7E00C945B0A69837A838B839C832D83E0
:100E70003E834F83588789E0E82EF12CEC0EFD1E4F
:100E8000CE010196B7010E947E098E010F5E1F4FB1
:100E9000CE010596B8010E947E098985823040F016
:100EA0008989823028F0C701B8010E94F60901C083
:100EB0008FEF6896E6E00C94770AA8E1B0E0E3E6ED
:100EC000F7E00C945B0A69837A838B839C832D8380
:100ED0003E834F83588789E0E82EF12CEC0EFD1EEF
:100EE000CE010196B7010E947E098E010F5E1F4F51
:100EF000CE010596B8010E947E098985823040F0B6
:100F00008989823028F0C701B8010E94F60901C022
:100F100081E06896E6E00C94770AACE0B0E0E3E9A3
:100F2000F7E00C945F0A69837A838B839C83CE01FC
:100F30000196BE016B5F7F4F0E947E098D818230DA
:100F400061F1823050F1843021F48E81882351F197
:100F50002EC02F81388537FD20C06E812F3131059D
:100F60001CF06623F9F023C08EE190E0821B930B06
:100F700029853A854B855C8504C0569547953795FC
:100F800027958A95D2F76623B1F050954095309514
:100F900021953F4F4F4F5F4F0EC020E030E040E0C3
:100FA00050E009C02FEF3FEF4FEF5FE704C020E0B4
:100FB00030E040E050E8B901CA012C96E2E00C9420
:100FC0007B0AA8E0B0E0E7EEF7E00C94570A7B015B
:100FD0008C01611571058105910519F482E0898301
:100FE00060C083E089838EE1C82ED12CDC82CB8265
:100FF000ED82FE820F831887C801B7010E945A084C
:10100000FC013197F7FF3BC0222733272E1B3F0BF4
:1010100057016801022E04C0D694C794B794A794D0
:101020000A94D2F740E050E060E070E081E090E0A8
:10103000A0E0B0E004C0880F991FAA1FBB1F2A952B
:10104000D2F70197A109B1098E219F21A023B123D5
:101050000097A105B10521F041E050E060E070E0AB
:101060004A295B296C297D294D835E836F837887AC
:101070008EE190E08E1B9F0B9C838B8312C0309778
:1010800081F00E2E04C0EE0CFF1C001F111F0A94ED
:10109000D2F7ED82FE820F831887CE1ADF0ADC8238
:1010A000CB821A82CE0101960E94A9082896EAE016
:1010B0000C94730AEF92FF920F931F937B018C01A4
:1010C00080E0E81680E0F80681E0080780E0180775
:1010D00088F48FEFE816F1040105110531F028F0CE
:1010E00088E090E0A0E0B0E017C080E090E0A0E0F1
:1010F000B0E012C080E0E81680E0F80680E0080763
:1011000081E0180728F088E190E0A0E0B0E004C09A
:1011100080E190E0A0E0B0E020E230E040E050E08C
:10112000281B390B4A0B5B0B04C016950795F794E7
:10113000E7948A95D2F7F701EE5AFE4F8081281B7B
:10114000310941095109C9011F910F91FF90EF9099
:101150000895DF92EF92FF920F931F93FC01E480BA
:10116000F58006811781D1808081823048F480E04B
:1011700090E0A0E1B0E0E82AF92A0A2B1B2BA5C0D9
:10118000843009F49FC0823021F4EE24FF248701CB
:1011900005C0E114F1040105110519F4E0E0F0E0E7
:1011A00096C0628173819FEF623879070CF05BC053
:1011B00022E83FEF261B370B2A3131052CF020E0C7
:1011C00030E040E050E02AC0B801A701022E04C080
:1011D00076956795579547950A94D2F781E090E008
:1011E000A0E0B0E004C0880F991FAA1FBB1F2A957A
:1011F000D2F70197A109B1098E219F21A023B12324
:101200000097A105B10521F081E090E0A0E0B0E0F9
:101210009A01AB01282B392B4A2B5B2BDA01C90130
:101220008F779070A070B07080349105A105B105E2
:1012300039F427FF09C0205C3F4F4F4F5F4F04C078
:10124000215C3F4F4F4F5F4FE0E0F0E02030A0E0E7
:101250003A07A0E04A07A0E45A0710F0E1E0F0E006
:1012600079018A0127C06038710564F5FB01E158F6
:10127000FF4FD801C7018F779070A070B070803495
:101280009105A105B10539F4E7FE0DC080E490E0B9
:10129000A0E0B0E004C08FE390E0A0E0B0E0E80E92
:1012A000F91E0A1F1B1F17FF05C016950795F79417
:1012B000E794319687E016950795F794E7948A9519
:1012C000D1F705C0EE24FF248701EFEFF0E06E2F89
:1012D000679566276795902F9F77D794DD24D794DD
:1012E0008E2F8695492F462B582F5D29B701CA01AD
:1012F0001F910F91FF90EF90DF900895FC01DB01AB
:10130000408151812281622F6F7770E0221F222756
:10131000221F9381892F880F822B282F30E0991F5D
:101320009927991F11969C93119721153105A9F5BD
:10133000411551056105710511F482E037C082E85D
:101340009FEF13969C938E9312979A01AB0167E0DF
:10135000220F331F441F551F6A95D1F783E08C93EA
:101360000DC0220F331F441F551F12968D919C9163
:101370001397019713969C938E931297203080E0D9
:10138000380780E0480780E4580758F314962D93F7
:101390003D934D935C93179708952F3F310579F452
:1013A000411551056105710519F484E08C93089588
:1013B00064FF03C081E08C9312C01C9210C02F57B1
:1013C000304013963C932E93129783E08C9387E0E2
:1013D000440F551F661F771F8A95D1F770641496C6
:1013E0004D935D936D937C93179708951F93DC0144
:1013F000FB019C91923008F447C08081823008F450
:1014000043C0943051F411961C91843099F5818138
:10141000682F70E0611B71093FC0843021F0923069
:1014200031F48230B9F18181882389F12DC0119680
:101430001C9111978230F1F081811817D9F412961E
:101440002D913C911397828193818217930794F099
:1014500028173907BCF014968D919D910D90BC9181
:10146000A02D2481358146815781281739074A07E5
:101470005B0718F4112341F00AC082179307A407F1
:10148000B50740F4112319F061E070E005C06FEF7B
:101490007FEF02C060E070E0CB011F9108952F92B2
:1014A0003F924F925F926F927F928F929F92AF92F4
:1014B000BF92CF92DF92EF92FF920F931F93CF9341
:1014C000DF93CDB7DEB7CA1BDB0B0FB6F894DEBFD8
:1014D0000FBECDBF09942A88398848885F846E84FE
:1014E0007D848C849B84AA84B984C884DF80EE8048
:1014F000FD800C811B81AA81B981CE0FD11D0FB651
:10150000F894DEBF0FBECDBFED010895EF92FF92BC
:101510000F931F93F22FF02E47FD02C0E4E001C0AD
:10152000E4E1242F332727FD309537FF03C03095A2
:1015300021953F4F4F2D512F0F2FEE2E0E94A70ABE
:101540008F2D912F1F910F91FF90EF900895A9E09B
:10155000B0E0EDEAFAE00C94530A6A01122FA02ED3
:10156000BE2C2BE3201718F42CE3922E02C0902EF1
:101570009394AE014F5F5F4F27E0092D0E94090C45
:10158000BC018981E82EFF24C70189709070019702
:1015900011F4ADE209C0B1FE02C0ABE205C0B0FC7F
:1015A00002C0A0E001C0A0E2E3FE3BC0AA2311F408
:1015B00023E001C024E0211710F020E002C0121B3C
:1015C000212FEB2CB4FE02C0322F0AC0F601322FBD
:1015D00080E202C0819331503323E1F7C20ED11C67
:1015E000AA2319F0F601A1936F01F6013196E2FEEC
:1015F00005C09EE4D6019C9381E404C09EE6D6011A
:101600009C9381E611968C9391833296DF01832F10
:1016100090E202C09D9381508823E1F7E30FF11D12
:1016200040C0E2FE42C0AA2311F423E001C024E03E
:10163000211710F020E002C0121B212FEB2CB4FE6A
:1016400002C0922F0AC0F601922F80E202C081935D
:1016500091509923E1F7C20ED11CAA2319F0F6018B
:10166000A1936F01F6013196E2FE08C089E4D6012C
:101670008C938EE411968C9386E407C089E6D6019C
:101680008C938EE611968C9386E681833296DF01E9
:10169000892F20E202C02D9381508823E1F7E90FC2
:1016A000F11D10822EEF3FEFAFC0161617061CF08B
:1016B00041E050E003C0AB014F5F5F4FAA2019F437
:1016C00080E090E003C08A2D90E0019620E030E0B9
:1016D000AA2311F021E030E0240F351F280F391F15
:1016E000812F90E02817390714F020E002C0121B68
:1016F000212F4B2D50E0CA0180719070B4FC0DC0B9
:10170000B3FC0BC0F601322F40E202C041933150CE
:101710003323E1F7C20ED11C01C0322FAA2319F0E6
:10172000F601A1936F01892B11F0132F0AC0F60166
:10173000132F80E302C0819311501123E1F7C30EF0
:10174000D11C092D060FBA8090E1892E912C8E2094
:101750009F20E4FE04C0F1E3BF1609F40150101607
:1017600014F001E003C0093008F008E09B0177FFA6
:1017700002C020E030E0CB010196821B930BFE01FA
:101780003196E80FF91F8EE2F82E3B01601A7108BE
:101790008A2D90E044275527481B590B8FEF2F3F88
:1017A000380719F4D601FD926D01621773072CF00A
:1017B0006216730614F4808101C080E3215030402A
:1017C00031962417350724F0D6018D936D01E6CFAD
:1017D0002617370749F4B5E3BB1528F0BB1621F4EB
:1017E0008114910409F481E3F6018193D601812FDC
:1017F00090E202C09C93815011968823D9F7E10FA3
:10180000F11D108220E030E0C9012996EEE00C9431
:101810006F0A283008F027E03327DA01990F311DCD
:1018200087FD916000966105710539F432602E5F85
:101830003D9330E32A95E1F708959F3F30F08038DB
:101840007105610509F03C5F3C5F3D93913008F004
:101850008068911DDF93CF931F930F93FF92EF92B8
:10186000192F987F9695E92F96959695E90FFF2762
:10187000EE53FF4F99273327EE24FF24A701E701FA
:1018800005900894079428F4360FE71EF81E491FA8
:10189000511D660F771F881F991F0694A1F70590A9
:1018A000079428F4E70EF81E491F561FC11D770F35
:1018B000881F991F661F0694A1F70590079428F4C6
:1018C000F80E491F561FC71FD11D880F991F661F8D
:1018D000771F0694A1F70590079420F4490F561F2F
:1018E000C71FD81F990F661F771F881F0694A9F777
:1018F00084911095177041F0D695C79557954795E7
:10190000F794E7941A95C1F7E8E6F0E0689415902B
:10191000159135916591959105907FE27395E11848
:10192000F10A430B560BC90BD009C0F7E10CF11EAD
:10193000431F561FC91FD01D7EF4703311F48A95C2
:10194000E6CFE894015030F0080F0AF400270217A0
:1019500008F4202F2395022F7A3328F079E37D9322
:101960002A95E9F710C07D932A9589F606949795F4
:101970006795379517951794E118F10A430B560BA5
:10198000C90BD00998F023957E9173957A3308F0AE
:1019900070E37C932013B8F77E9170617D9330F0F3
:1019A000839571E37D9370E32A95E1F71124EF901D
:1019B000FF900F911F91CF91DF91992787FD90950F
:0619C0000895F894FFCF2A
:1019C6004672657175656E63793A200020487A0D16
:1019D6000A00416D706C69747564653A2000205682
:1019E6000D0A0043757272656E7420566F6C7461D1
:1019F60067653A200020560D0A0D0A00FF03C8014C
:101A0600C0F9A4B0999282F880900000000000000E
:101A16000000000102020303030304040404040497
:101A26000404050505050505050505050505050562
:101A36000505060606060606060606060606060642
:101A46000606060606060606060606060606060630
:101A56000606070707070707070707070707070712
:101A66000707070707070707070707070707070700
:101A760007070707070707070707070707070707F0
:101A860007070707070707070707070707070707E0
:101A960007070808080808080808080808080808C2
:101AA60008080808080808080808080808080808B0
:101AB60008080808080808080808080808080808A0
:101AC6000808080808080808080808080808080890
:101AD6000808080808080808080808080808080880
:101AE6000808080808080808080808080808080870
:101AF6000808080808080808080808080808080860
:101B0600080808080808080808080808080808084F
:021B16000808BD
:00000001FF
